{
  "_format": "hh3-artifact-1",
  "contractName": "SubscriptionManager",
  "sourceName": "contract/contracts/SubscriptionManager.sol",
  "abi": [
    {
      "inputs": [],
      "stateMutability": "nonpayable",
      "type": "constructor"
    },
    {
      "inputs": [
        {
          "internalType": "address",
          "name": "owner",
          "type": "address"
        }
      ],
      "name": "OwnableInvalidOwner",
      "type": "error"
    },
    {
      "inputs": [
        {
          "internalType": "address",
          "name": "account",
          "type": "address"
        }
      ],
      "name": "OwnableUnauthorizedAccount",
      "type": "error"
    },
    {
      "inputs": [],
      "name": "ReentrancyGuardReentrantCall",
      "type": "error"
    },
    {
      "anonymous": false,
      "inputs": [
        {
          "indexed": true,
          "internalType": "address",
          "name": "previousOwner",
          "type": "address"
        },
        {
          "indexed": true,
          "internalType": "address",
          "name": "newOwner",
          "type": "address"
        }
      ],
      "name": "OwnershipTransferred",
      "type": "event"
    },
    {
      "anonymous": false,
      "inputs": [
        {
          "indexed": true,
          "internalType": "address",
          "name": "user",
          "type": "address"
        },
        {
          "indexed": false,
          "internalType": "uint256",
          "name": "amount",
          "type": "uint256"
        },
        {
          "indexed": false,
          "internalType": "uint256",
          "name": "timestamp",
          "type": "uint256"
        }
      ],
      "name": "PaymentProcessed",
      "type": "event"
    },
    {
      "anonymous": false,
      "inputs": [
        {
          "indexed": true,
          "internalType": "uint256",
          "name": "planId",
          "type": "uint256"
        },
        {
          "indexed": false,
          "internalType": "string",
          "name": "name",
          "type": "string"
        },
        {
          "indexed": false,
          "internalType": "uint256",
          "name": "price",
          "type": "uint256"
        },
        {
          "indexed": false,
          "internalType": "uint256",
          "name": "period",
          "type": "uint256"
        }
      ],
      "name": "PlanCreated",
      "type": "event"
    },
    {
      "anonymous": false,
      "inputs": [
        {
          "indexed": true,
          "internalType": "uint256",
          "name": "planId",
          "type": "uint256"
        },
        {
          "indexed": false,
          "internalType": "bool",
          "name": "active",
          "type": "bool"
        }
      ],
      "name": "PlanUpdated",
      "type": "event"
    },
    {
      "anonymous": false,
      "inputs": [
        {
          "indexed": true,
          "internalType": "address",
          "name": "user",
          "type": "address"
        }
      ],
      "name": "SubscriptionCancelled",
      "type": "event"
    },
    {
      "anonymous": false,
      "inputs": [
        {
          "indexed": true,
          "internalType": "address",
          "name": "user",
          "type": "address"
        },
        {
          "indexed": true,
          "internalType": "uint256",
          "name": "planId",
          "type": "uint256"
        }
      ],
      "name": "SubscriptionCreated",
      "type": "event"
    },
    {
      "inputs": [],
      "name": "MAX_PLANS",
      "outputs": [
        {
          "internalType": "uint256",
          "name": "",
          "type": "uint256"
        }
      ],
      "stateMutability": "view",
      "type": "function"
    },
    {
      "inputs": [],
      "name": "cancelSubscription",
      "outputs": [],
      "stateMutability": "nonpayable",
      "type": "function"
    },
    {
      "inputs": [
        {
          "internalType": "string[]",
          "name": "_names",
          "type": "string[]"
        },
        {
          "internalType": "uint256[]",
          "name": "_prices",
          "type": "uint256[]"
        },
        {
          "internalType": "uint256[]",
          "name": "_periods",
          "type": "uint256[]"
        },
        {
          "internalType": "address[]",
          "name": "_tokenAddresses",
          "type": "address[]"
        }
      ],
      "name": "createPlansBatch",
      "outputs": [],
      "stateMutability": "nonpayable",
      "type": "function"
    },
    {
      "inputs": [
        {
          "internalType": "uint256",
          "name": "_planId",
          "type": "uint256"
        }
      ],
      "name": "getPlan",
      "outputs": [
        {
          "components": [
            {
              "internalType": "uint256",
              "name": "id",
              "type": "uint256"
            },
            {
              "internalType": "string",
              "name": "name",
              "type": "string"
            },
            {
              "internalType": "uint256",
              "name": "price",
              "type": "uint256"
            },
            {
              "internalType": "uint256",
              "name": "period",
              "type": "uint256"
            },
            {
              "internalType": "bool",
              "name": "active",
              "type": "bool"
            },
            {
              "internalType": "address",
              "name": "tokenAddress",
              "type": "address"
            }
          ],
          "internalType": "struct SubscriptionManager.SubscriptionPlan",
          "name": "",
          "type": "tuple"
        }
      ],
      "stateMutability": "view",
      "type": "function"
    },
    {
      "inputs": [
        {
          "internalType": "address",
          "name": "_user",
          "type": "address"
        }
      ],
      "name": "getUserSubscription",
      "outputs": [
        {
          "components": [
            {
              "internalType": "uint256",
              "name": "planId",
              "type": "uint256"
            },
            {
              "internalType": "uint256",
              "name": "startTime",
              "type": "uint256"
            },
            {
              "internalType": "uint256",
              "name": "lastPayment",
              "type": "uint256"
            },
            {
              "internalType": "bool",
              "name": "active",
              "type": "bool"
            },
            {
              "internalType": "address",
              "name": "delegator",
              "type": "address"
            }
          ],
          "internalType": "struct SubscriptionManager.UserSubscription",
          "name": "",
          "type": "tuple"
        }
      ],
      "stateMutability": "view",
      "type": "function"
    },
    {
      "inputs": [
        {
          "internalType": "address",
          "name": "_user",
          "type": "address"
        }
      ],
      "name": "isPaymentDue",
      "outputs": [
        {
          "internalType": "bool",
          "name": "",
          "type": "bool"
        },
        {
          "internalType": "uint256",
          "name": "",
          "type": "uint256"
        }
      ],
      "stateMutability": "view",
      "type": "function"
    },
    {
      "inputs": [],
      "name": "nextPlanId",
      "outputs": [
        {
          "internalType": "uint256",
          "name": "",
          "type": "uint256"
        }
      ],
      "stateMutability": "view",
      "type": "function"
    },
    {
      "inputs": [],
      "name": "owner",
      "outputs": [
        {
          "internalType": "address",
          "name": "",
          "type": "address"
        }
      ],
      "stateMutability": "view",
      "type": "function"
    },
    {
      "inputs": [
        {
          "internalType": "uint256",
          "name": "",
          "type": "uint256"
        }
      ],
      "name": "plans",
      "outputs": [
        {
          "internalType": "uint256",
          "name": "id",
          "type": "uint256"
        },
        {
          "internalType": "string",
          "name": "name",
          "type": "string"
        },
        {
          "internalType": "uint256",
          "name": "price",
          "type": "uint256"
        },
        {
          "internalType": "uint256",
          "name": "period",
          "type": "uint256"
        },
        {
          "internalType": "bool",
          "name": "active",
          "type": "bool"
        },
        {
          "internalType": "address",
          "name": "tokenAddress",
          "type": "address"
        }
      ],
      "stateMutability": "view",
      "type": "function"
    },
    {
      "inputs": [
        {
          "internalType": "address",
          "name": "_user",
          "type": "address"
        }
      ],
      "name": "processPayment",
      "outputs": [],
      "stateMutability": "nonpayable",
      "type": "function"
    },
    {
      "inputs": [],
      "name": "renounceOwnership",
      "outputs": [],
      "stateMutability": "nonpayable",
      "type": "function"
    },
    {
      "inputs": [
        {
          "internalType": "uint256",
          "name": "_planId",
          "type": "uint256"
        }
      ],
      "name": "subscribeWithPayment",
      "outputs": [],
      "stateMutability": "nonpayable",
      "type": "function"
    },
    {
      "inputs": [
        {
          "internalType": "address",
          "name": "",
          "type": "address"
        }
      ],
      "name": "subscriptions",
      "outputs": [
        {
          "internalType": "uint256",
          "name": "planId",
          "type": "uint256"
        },
        {
          "internalType": "uint256",
          "name": "startTime",
          "type": "uint256"
        },
        {
          "internalType": "uint256",
          "name": "lastPayment",
          "type": "uint256"
        },
        {
          "internalType": "bool",
          "name": "active",
          "type": "bool"
        },
        {
          "internalType": "address",
          "name": "delegator",
          "type": "address"
        }
      ],
      "stateMutability": "view",
      "type": "function"
    },
    {
      "inputs": [],
      "name": "totalRevenue",
      "outputs": [
        {
          "internalType": "uint256",
          "name": "",
          "type": "uint256"
        }
      ],
      "stateMutability": "view",
      "type": "function"
    },
    {
      "inputs": [
        {
          "internalType": "address",
          "name": "newOwner",
          "type": "address"
        }
      ],
      "name": "transferOwnership",
      "outputs": [],
      "stateMutability": "nonpayable",
      "type": "function"
    },
    {
      "inputs": [
        {
          "internalType": "uint256",
          "name": "_planId",
          "type": "uint256"
        },
        {
          "internalType": "bool",
          "name": "_active",
          "type": "bool"
        }
      ],
      "name": "updatePlan",
      "outputs": [],
      "stateMutability": "nonpayable",
      "type": "function"
    },
    {
      "inputs": [
        {
          "internalType": "address",
          "name": "_token",
          "type": "address"
        },
        {
          "internalType": "uint256",
          "name": "_amount",
          "type": "uint256"
        }
      ],
      "name": "withdrawRevenue",
      "outputs": [],
      "stateMutability": "nonpayable",
      "type": "function"
    }
  ],
  "bytecode": "0x608060405260016004553480156013575f5ffd5b503380603857604051631e4fbdf760e01b81525f600482015260240160405180910390fd5b603f816048565b50600180556097565b5f80546001600160a01b038381166001600160a01b0319831681178455604051919092169283917f8be0079c531659141344cd1fd0a4f28419497f9722a3daafe3b4186f6b6457e09190a35050565b611c67806100a45f395ff3fe608060405234801561000f575f5ffd5b5060043610610106575f3560e01c80638da5cb5b1161009e578063bf2d9e0b1161006e578063bf2d9e0b14610215578063ebbeec081461021e578063efac226f14610279578063f046395a1461028c578063f2fde38b14610308575f5ffd5b80638da5cb5b146101995780638fe123d7146101b357806397ad7e02146101c6578063b1620616146101f0575f5ffd5b806326cd5274116100d957806326cd5274146101555780635f8d26b214610175578063715018a61461017e5780638b63c26714610186575f5ffd5b806309bde0a11461010a5780630ea91f111461011f578063157f71231461013a57806324e9edb01461014d575b5f5ffd5b61011d6101183660046115b9565b61031b565b005b610127600581565b6040519081526020015b60405180910390f35b61011d6101483660046115dd565b6106da565b61011d610782565b6101686101633660046115b9565b61088c565b6040516101319190611639565b61012760045481565b61011d6109be565b61011d6101943660046116b7565b6109d1565b5f546040516001600160a01b039091168152602001610131565b61011d6101c13660046116df565b610aad565b6101d96101d43660046116df565b610edb565b604080519215158352602083019190915201610131565b6102036101fe3660046115b9565b61107a565b604051610131969594939291906116ff565b61012760055481565b61023161022c3660046116df565b611143565b60405161013191908151815260208083015190820152604080830151908201526060808301511515908201526080918201516001600160a01b03169181019190915260a00190565b61011d610287366004611879565b6111da565b6102d561029a3660046116df565b600360208190525f918252604090912080546001820154600283015492909301549092919060ff81169061010090046001600160a01b031685565b60408051958652602086019490945292840191909152151560608301526001600160a01b0316608082015260a001610131565b61011d6103163660046116df565b6114da565b60045481106103675760405162461bcd60e51b8152602060048201526013602482015272141b185b88191bd95cc81b9bdd08195e1a5cdd606a1b60448201526064015b60405180910390fd5b5f8181526002602052604090206004015460ff166103bc5760405162461bcd60e51b8152602060048201526012602482015271506c616e206973206e6f742061637469766560701b604482015260640161035e565b335f908152600360205260409020541561040d5760405162461bcd60e51b8152602060048201526012602482015271105b1c9958591e481cdd589cd8dc9a58995960721b604482015260640161035e565b5f60025f8381526020019081526020015f206040518060c00160405290815f820154815260200160018201805461044390611a08565b80601f016020809104026020016040519081016040528092919081815260200182805461046f90611a08565b80156104ba5780601f10610491576101008083540402835291602001916104ba565b820191905f5260205f20905b81548152906001019060200180831161049d57829003601f168201915b505050918352505060028201546020820152600382015460408083019190915260049283015460ff81161515606084015261010090046001600160a01b0390811660809093019290925260a08401518482015191516323b872dd60e01b8152339481019490945230602485015260448401919091529293508216906323b872dd906064016020604051808303815f875af115801561055a573d5f5f3e3d5ffd5b505050506040513d601f19601f8201168201806040525081019061057e9190611a40565b6105c35760405162461bcd60e51b8152602060048201526016602482015275125b9a5d1a585b081c185e5b595b9d0819985a5b195960521b604482015260640161035e565b6040805160a08101825284815242602080830182815283850192835260016060850181815233608087018181525f9182526003958690528882209751885593519287019290925593516002860155925193909101805491516001600160a81b0319909216931515610100600160a81b031916939093176101006001600160a01b039092169190910217909155908301516005805491929091610666908490611a6f565b9091555050604051839033907f9cd7a59b18ee4782635475d0e88f128ffeace2871c5bfaefe8d7d680748ab62f905f90a3604080830151815190815242602082015233917f7bd379b31566817ff79103ff210fc7d86fa755c249a8dc25f96618362789e191910160405180910390a2505050565b6106e2611514565b60045482106107295760405162461bcd60e51b8152602060048201526013602482015272141b185b88191bd95cc81b9bdd08195e1a5cdd606a1b604482015260640161035e565b5f82815260026020908152604091829020600401805460ff1916841515908117909155915191825283917fe8898c20571732660341e9bd58210cbce79a036302e465085395645040fd1cc2910160405180910390a25050565b335f908152600360208190526040909120015460ff166107dd5760405162461bcd60e51b815260206004820152601660248201527527379030b1ba34bb329039bab139b1b934b83a34b7b760511b604482015260640161035e565b6040805160a0810182525f80825260208083018281528385018381526060850184815260808601858152338087526003958690528887209751885593516001880155915160028701555194909201805492516001600160a01b031661010002610100600160a81b0319951515959095166001600160a81b031990931692909217939093179055915190917f71215198e3f86c24dc3af6d0d7f84d0095e5ee736aa56daf9927fae51935e95d91a2565b6108cb6040518060c001604052805f8152602001606081526020015f81526020015f81526020015f151581526020015f6001600160a01b031681525090565b60025f8381526020019081526020015f206040518060c00160405290815f820154815260200160018201805461090090611a08565b80601f016020809104026020016040519081016040528092919081815260200182805461092c90611a08565b80156109775780601f1061094e57610100808354040283529160200191610977565b820191905f5260205f20905b81548152906001019060200180831161095a57829003601f168201915b5050509183525050600282015460208201526003820154604082015260049091015460ff81161515606083015261010090046001600160a01b031660809091015292915050565b6109c6611514565b6109cf5f611540565b565b6109d9611514565b816001600160a01b03811663a9059cbb6109fa5f546001600160a01b031690565b6040516001600160e01b031960e084901b1681526001600160a01b039091166004820152602481018590526044016020604051808303815f875af1158015610a44573d5f5f3e3d5ffd5b505050506040513d601f19601f82011682018060405250810190610a689190611a40565b610aa85760405162461bcd60e51b815260206004820152601160248201527015da5d1a191c985dd85b0819985a5b1959607a1b604482015260640161035e565b505050565b610ab561158f565b336001600160a01b03821614610b1c5760405162461bcd60e51b815260206004820152602660248201527f43616e206f6e6c792070617920666f7220796f7572206f776e2073756273637260448201526534b83a34b7b760d11b606482015260840161035e565b6001600160a01b0381165f908152600360208190526040909120015460ff16610b875760405162461bcd60e51b815260206004820152601760248201527f537562736372697074696f6e206e6f7420616374697665000000000000000000604482015260640161035e565b6001600160a01b0381165f9081526003602090815260408083208054845260028352818420825160c0810190935280548352600181018054929594919291840191610bd190611a08565b80601f0160208091040260200160405190810160405280929190818152602001828054610bfd90611a08565b8015610c485780601f10610c1f57610100808354040283529160200191610c48565b820191905f5260205f20905b815481529060010190602001808311610c2b57829003601f168201915b505050918352505060028281015460208301526003830154604083015260049092015460ff811615156060808401919091526101009091046001600160a01b031660809092019190915282015190840154919250610ca591611a6f565b421015610cea5760405162461bcd60e51b815260206004820152601360248201527214185e5b595b9d081b9bdd08191d59481e595d606a1b604482015260640161035e565b60a081015160408083015190516370a0823160e01b81526001600160a01b0386811660048301528316906370a0823190602401602060405180830381865afa158015610d38573d5f5f3e3d5ffd5b505050506040513d601f19601f82011682018060405250810190610d5c9190611a88565b1015610daa5760405162461bcd60e51b815260206004820152601960248201527f496e73756666696369656e7420555344432062616c616e636500000000000000604482015260640161035e565b60408281015190516323b872dd60e01b81526001600160a01b0386811660048301523060248301526044820192909252908216906323b872dd906064016020604051808303815f875af1158015610e03573d5f5f3e3d5ffd5b505050506040513d601f19601f82011682018060405250810190610e279190611a40565b610e645760405162461bcd60e51b815260206004820152600e60248201526d14185e5b595b9d0819985a5b195960921b604482015260640161035e565b4260028401556040820151600580545f90610e80908490611a6f565b909155505060408083015181519081524260208201526001600160a01b038616917f7bd379b31566817ff79103ff210fc7d86fa755c249a8dc25f96618362789e191910160405180910390a2505050610ed860018055565b50565b6001600160a01b038082165f908152600360208181526040808420815160a081018352815481526001820154938101939093526002810154918301919091529091015460ff811615801560608401526101009091049093166080820152909182919080610f4757508051155b15610f5757505f93849350915050565b5f60025f835f015181526020019081526020015f206040518060c00160405290815f8201548152602001600182018054610f9090611a08565b80601f0160208091040260200160405190810160405280929190818152602001828054610fbc90611a08565b80156110075780601f10610fde57610100808354040283529160200191611007565b820191905f5260205f20905b815481529060010190602001808311610fea57829003601f168201915b505050918352505060028201546020820152600382015460408083019190915260049092015460ff811615156060808401919091526101009091046001600160a01b0316608090920191909152820151908401519192505f9161106a9190611a6f565b4281111597909650945050505050565b60026020525f90815260409020805460018201805491929161109b90611a08565b80601f01602080910402602001604051908101604052809291908181526020018280546110c790611a08565b80156111125780601f106110e957610100808354040283529160200191611112565b820191905f5260205f20905b8154815290600101906020018083116110f557829003601f168201915b50505050600283015460038401546004909401549293909290915060ff81169061010090046001600160a01b031686565b61117b6040518060a001604052805f81526020015f81526020015f81526020015f151581526020015f6001600160a01b031681525090565b506001600160a01b039081165f90815260036020818152604092839020835160a0810185528154815260018201549281019290925260028101549382019390935291015460ff8116151560608301526101009004909116608082015290565b6111e2611514565b82518451146112035760405162461bcd60e51b815260040161035e90611a9f565b81518451146112245760405162461bcd60e51b815260040161035e90611a9f565b80518451146112455760405162461bcd60e51b815260040161035e90611a9f565b5f8451116112955760405162461bcd60e51b815260206004820152601a60248201527f4174206c65617374206f6e6520706c616e207265717569726564000000000000604482015260640161035e565b6005600185516004546112a89190611a6f565b6112b29190611acf565b11156113005760405162461bcd60e51b815260206004820152601b60248201527f45786365656473206d6178696d756d20706c616e73206c696d69740000000000604482015260640161035e565b5f5b84518110156114d3576040518060c00160405280600454815260200186838151811061133057611330611ae2565b6020026020010151815260200185838151811061134f5761134f611ae2565b6020026020010151815260200184838151811061136e5761136e611ae2565b6020026020010151815260200160011515815260200183838151811061139657611396611ae2565b6020908102919091018101516001600160a01b03169091526004545f9081526002825260409020825181559082015160018201906113d49082611b3a565b50604082015160028201556060820151600382015560808201516004918201805460a0909401516001600160a01b031661010002610100600160a81b0319921515929092166001600160a81b031990941693909317179091555485517f9e577f4ac885b769646db304f554e3503ca6b65d2bf0dc1aab2d40f42dca44d59087908490811061146457611464611ae2565b602002602001015186848151811061147e5761147e611ae2565b602002602001015186858151811061149857611498611ae2565b60200260200101516040516114af93929190611bf5565b60405180910390a260048054905f6114c683611c19565b9091555050600101611302565b5050505050565b6114e2611514565b6001600160a01b03811661150b57604051631e4fbdf760e01b81525f600482015260240161035e565b610ed881611540565b5f546001600160a01b031633146109cf5760405163118cdaa760e01b815233600482015260240161035e565b5f80546001600160a01b038381166001600160a01b0319831681178455604051919092169283917f8be0079c531659141344cd1fd0a4f28419497f9722a3daafe3b4186f6b6457e09190a35050565b6002600154036115b257604051633ee5aeb560e01b815260040160405180910390fd5b6002600155565b5f602082840312156115c9575f5ffd5b5035919050565b8015158114610ed8575f5ffd5b5f5f604083850312156115ee575f5ffd5b823591506020830135611600816115d0565b809150509250929050565b5f81518084528060208401602086015e5f602082860101526020601f19601f83011685010191505092915050565b60208152815160208201525f602083015160c0604084015261165e60e084018261160b565b905060408401516060840152606084015160808401526080840151151560a084015260018060a01b0360a08501511660c08401528091505092915050565b80356001600160a01b03811681146116b2575f5ffd5b919050565b5f5f604083850312156116c8575f5ffd5b6116d18361169c565b946020939093013593505050565b5f602082840312156116ef575f5ffd5b6116f88261169c565b9392505050565b86815260c060208201525f61171760c083018861160b565b604083019690965250606081019390935290151560808301526001600160a01b031660a09091015292915050565b634e487b7160e01b5f52604160045260245ffd5b604051601f8201601f1916810167ffffffffffffffff8111828210171561178257611782611745565b604052919050565b5f67ffffffffffffffff8211156117a3576117a3611745565b5060051b60200190565b5f82601f8301126117bc575f5ffd5b81356117cf6117ca8261178a565b611759565b8082825260208201915060208360051b8601019250858311156117f0575f5ffd5b602085015b8381101561180d5780358352602092830192016117f5565b5095945050505050565b5f82601f830112611826575f5ffd5b81356118346117ca8261178a565b8082825260208201915060208360051b860101925085831115611855575f5ffd5b602085015b8381101561180d5761186b8161169c565b83526020928301920161185a565b5f5f5f5f6080858703121561188c575f5ffd5b843567ffffffffffffffff8111156118a2575f5ffd5b8501601f810187136118b2575f5ffd5b80356118c06117ca8261178a565b8082825260208201915060208360051b8501019250898311156118e1575f5ffd5b602084015b8381101561198157803567ffffffffffffffff811115611904575f5ffd5b8501603f81018c13611914575f5ffd5b602081013567ffffffffffffffff81111561193157611931611745565b611944601f8201601f1916602001611759565b8181526040838301018e1015611958575f5ffd5b816040840160208301375f602083830101528086525050506020830192506020810190506118e6565b509650505050602085013567ffffffffffffffff8111156119a0575f5ffd5b6119ac878288016117ad565b935050604085013567ffffffffffffffff8111156119c8575f5ffd5b6119d4878288016117ad565b925050606085013567ffffffffffffffff8111156119f0575f5ffd5b6119fc87828801611817565b91505092959194509250565b600181811c90821680611a1c57607f821691505b602082108103611a3a57634e487b7160e01b5f52602260045260245ffd5b50919050565b5f60208284031215611a50575f5ffd5b81516116f8816115d0565b634e487b7160e01b5f52601160045260245ffd5b80820180821115611a8257611a82611a5b565b92915050565b5f60208284031215611a98575f5ffd5b5051919050565b602080825260169082015275082e4e4c2f2e640d8cadccee8d040dad2e6dac2e8c6d60531b604082015260600190565b81810381811115611a8257611a82611a5b565b634e487b7160e01b5f52603260045260245ffd5b601f821115610aa857805f5260205f20601f840160051c81016020851015611b1b5750805b601f840160051c820191505b818110156114d3575f8155600101611b27565b815167ffffffffffffffff811115611b5457611b54611745565b611b6881611b628454611a08565b84611af6565b6020601f821160018114611b9a575f8315611b835750848201515b5f19600385901b1c1916600184901b1784556114d3565b5f84815260208120601f198516915b82811015611bc95787850151825560209485019460019092019101611ba9565b5084821015611be657868401515f19600387901b60f8161c191681555b50505050600190811b01905550565b606081525f611c07606083018661160b565b60208301949094525060400152919050565b5f60018201611c2a57611c2a611a5b565b506001019056fea264697066735822122016c4fb62851a7f8d65f9f2e12c329aff606ed1c6216abf28e47f842424ea2c7264736f6c634300081c0033",
  "linkReferences": {},
  "deployedLinkReferences": {},
  "immutableReferences": {},
  "inputSourceName": "project/contract/contracts/SubscriptionManager.sol",
  "buildInfoId": "solc-0_8_28-205029e856ae8b8f66334484141b8024285d1262"
}