{
  "_format": "hh3-artifact-1",
  "contractName": "SubscriptionManager",
  "sourceName": "contracts/SubscriptionManager.sol",
  "abi": [
    {
      "inputs": [],
      "stateMutability": "nonpayable",
      "type": "constructor"
    },
    {
      "inputs": [
        {
          "internalType": "address",
          "name": "owner",
          "type": "address"
        }
      ],
      "name": "OwnableInvalidOwner",
      "type": "error"
    },
    {
      "inputs": [
        {
          "internalType": "address",
          "name": "account",
          "type": "address"
        }
      ],
      "name": "OwnableUnauthorizedAccount",
      "type": "error"
    },
    {
      "inputs": [],
      "name": "ReentrancyGuardReentrantCall",
      "type": "error"
    },
    {
      "anonymous": false,
      "inputs": [
        {
          "indexed": true,
          "internalType": "address",
          "name": "executor",
          "type": "address"
        },
        {
          "indexed": false,
          "internalType": "bool",
          "name": "authorized",
          "type": "bool"
        }
      ],
      "name": "ExecutorAuthorized",
      "type": "event"
    },
    {
      "anonymous": false,
      "inputs": [
        {
          "indexed": true,
          "internalType": "address",
          "name": "previousOwner",
          "type": "address"
        },
        {
          "indexed": true,
          "internalType": "address",
          "name": "newOwner",
          "type": "address"
        }
      ],
      "name": "OwnershipTransferred",
      "type": "event"
    },
    {
      "anonymous": false,
      "inputs": [
        {
          "indexed": true,
          "internalType": "address",
          "name": "user",
          "type": "address"
        },
        {
          "indexed": false,
          "internalType": "uint256",
          "name": "amount",
          "type": "uint256"
        },
        {
          "indexed": false,
          "internalType": "uint256",
          "name": "timestamp",
          "type": "uint256"
        }
      ],
      "name": "PaymentProcessed",
      "type": "event"
    },
    {
      "anonymous": false,
      "inputs": [
        {
          "indexed": true,
          "internalType": "uint256",
          "name": "planId",
          "type": "uint256"
        },
        {
          "indexed": false,
          "internalType": "string",
          "name": "name",
          "type": "string"
        },
        {
          "indexed": false,
          "internalType": "uint256",
          "name": "price",
          "type": "uint256"
        },
        {
          "indexed": false,
          "internalType": "uint256",
          "name": "period",
          "type": "uint256"
        }
      ],
      "name": "PlanCreated",
      "type": "event"
    },
    {
      "anonymous": false,
      "inputs": [
        {
          "indexed": true,
          "internalType": "uint256",
          "name": "planId",
          "type": "uint256"
        },
        {
          "indexed": false,
          "internalType": "bool",
          "name": "active",
          "type": "bool"
        }
      ],
      "name": "PlanUpdated",
      "type": "event"
    },
    {
      "anonymous": false,
      "inputs": [
        {
          "indexed": true,
          "internalType": "address",
          "name": "user",
          "type": "address"
        }
      ],
      "name": "SubscriptionCancelled",
      "type": "event"
    },
    {
      "anonymous": false,
      "inputs": [
        {
          "indexed": true,
          "internalType": "address",
          "name": "user",
          "type": "address"
        },
        {
          "indexed": true,
          "internalType": "uint256",
          "name": "planId",
          "type": "uint256"
        }
      ],
      "name": "SubscriptionCreated",
      "type": "event"
    },
    {
      "inputs": [
        {
          "internalType": "address",
          "name": "_executor",
          "type": "address"
        },
        {
          "internalType": "bool",
          "name": "_authorized",
          "type": "bool"
        }
      ],
      "name": "authorizeExecutor",
      "outputs": [],
      "stateMutability": "nonpayable",
      "type": "function"
    },
    {
      "inputs": [
        {
          "internalType": "address",
          "name": "",
          "type": "address"
        }
      ],
      "name": "authorizedExecutors",
      "outputs": [
        {
          "internalType": "bool",
          "name": "",
          "type": "bool"
        }
      ],
      "stateMutability": "view",
      "type": "function"
    },
    {
      "inputs": [],
      "name": "cancelSubscription",
      "outputs": [],
      "stateMutability": "nonpayable",
      "type": "function"
    },
    {
      "inputs": [
        {
          "internalType": "string",
          "name": "_name",
          "type": "string"
        },
        {
          "internalType": "uint256",
          "name": "_price",
          "type": "uint256"
        },
        {
          "internalType": "uint256",
          "name": "_period",
          "type": "uint256"
        },
        {
          "internalType": "address",
          "name": "_tokenAddress",
          "type": "address"
        }
      ],
      "name": "createPlan",
      "outputs": [],
      "stateMutability": "nonpayable",
      "type": "function"
    },
    {
      "inputs": [
        {
          "internalType": "string[]",
          "name": "_names",
          "type": "string[]"
        },
        {
          "internalType": "uint256[]",
          "name": "_prices",
          "type": "uint256[]"
        },
        {
          "internalType": "uint256[]",
          "name": "_periods",
          "type": "uint256[]"
        },
        {
          "internalType": "address[]",
          "name": "_tokenAddresses",
          "type": "address[]"
        }
      ],
      "name": "createPlansBatch",
      "outputs": [],
      "stateMutability": "nonpayable",
      "type": "function"
    },
    {
      "inputs": [
        {
          "internalType": "uint256",
          "name": "_planId",
          "type": "uint256"
        }
      ],
      "name": "getPlan",
      "outputs": [
        {
          "components": [
            {
              "internalType": "uint256",
              "name": "id",
              "type": "uint256"
            },
            {
              "internalType": "string",
              "name": "name",
              "type": "string"
            },
            {
              "internalType": "uint256",
              "name": "price",
              "type": "uint256"
            },
            {
              "internalType": "uint256",
              "name": "period",
              "type": "uint256"
            },
            {
              "internalType": "bool",
              "name": "active",
              "type": "bool"
            },
            {
              "internalType": "address",
              "name": "tokenAddress",
              "type": "address"
            }
          ],
          "internalType": "struct SubscriptionManager.SubscriptionPlan",
          "name": "",
          "type": "tuple"
        }
      ],
      "stateMutability": "view",
      "type": "function"
    },
    {
      "inputs": [
        {
          "internalType": "address",
          "name": "_user",
          "type": "address"
        }
      ],
      "name": "getUserSubscription",
      "outputs": [
        {
          "components": [
            {
              "internalType": "uint256",
              "name": "planId",
              "type": "uint256"
            },
            {
              "internalType": "uint256",
              "name": "startTime",
              "type": "uint256"
            },
            {
              "internalType": "uint256",
              "name": "lastPayment",
              "type": "uint256"
            },
            {
              "internalType": "bool",
              "name": "active",
              "type": "bool"
            },
            {
              "internalType": "address",
              "name": "delegator",
              "type": "address"
            }
          ],
          "internalType": "struct SubscriptionManager.UserSubscription",
          "name": "",
          "type": "tuple"
        }
      ],
      "stateMutability": "view",
      "type": "function"
    },
    {
      "inputs": [
        {
          "internalType": "address",
          "name": "_user",
          "type": "address"
        }
      ],
      "name": "isPaymentDue",
      "outputs": [
        {
          "internalType": "bool",
          "name": "",
          "type": "bool"
        }
      ],
      "stateMutability": "view",
      "type": "function"
    },
    {
      "inputs": [],
      "name": "nextPlanId",
      "outputs": [
        {
          "internalType": "uint256",
          "name": "",
          "type": "uint256"
        }
      ],
      "stateMutability": "view",
      "type": "function"
    },
    {
      "inputs": [],
      "name": "owner",
      "outputs": [
        {
          "internalType": "address",
          "name": "",
          "type": "address"
        }
      ],
      "stateMutability": "view",
      "type": "function"
    },
    {
      "inputs": [
        {
          "internalType": "uint256",
          "name": "",
          "type": "uint256"
        }
      ],
      "name": "plans",
      "outputs": [
        {
          "internalType": "uint256",
          "name": "id",
          "type": "uint256"
        },
        {
          "internalType": "string",
          "name": "name",
          "type": "string"
        },
        {
          "internalType": "uint256",
          "name": "price",
          "type": "uint256"
        },
        {
          "internalType": "uint256",
          "name": "period",
          "type": "uint256"
        },
        {
          "internalType": "bool",
          "name": "active",
          "type": "bool"
        },
        {
          "internalType": "address",
          "name": "tokenAddress",
          "type": "address"
        }
      ],
      "stateMutability": "view",
      "type": "function"
    },
    {
      "inputs": [
        {
          "internalType": "address",
          "name": "_user",
          "type": "address"
        }
      ],
      "name": "processPayment",
      "outputs": [],
      "stateMutability": "nonpayable",
      "type": "function"
    },
    {
      "inputs": [],
      "name": "renounceOwnership",
      "outputs": [],
      "stateMutability": "nonpayable",
      "type": "function"
    },
    {
      "inputs": [
        {
          "internalType": "uint256",
          "name": "_planId",
          "type": "uint256"
        }
      ],
      "name": "subscribe",
      "outputs": [],
      "stateMutability": "nonpayable",
      "type": "function"
    },
    {
      "inputs": [
        {
          "internalType": "uint256",
          "name": "_planId",
          "type": "uint256"
        }
      ],
      "name": "subscribeWithPayment",
      "outputs": [],
      "stateMutability": "nonpayable",
      "type": "function"
    },
    {
      "inputs": [
        {
          "internalType": "address",
          "name": "",
          "type": "address"
        }
      ],
      "name": "subscriptions",
      "outputs": [
        {
          "internalType": "uint256",
          "name": "planId",
          "type": "uint256"
        },
        {
          "internalType": "uint256",
          "name": "startTime",
          "type": "uint256"
        },
        {
          "internalType": "uint256",
          "name": "lastPayment",
          "type": "uint256"
        },
        {
          "internalType": "bool",
          "name": "active",
          "type": "bool"
        },
        {
          "internalType": "address",
          "name": "delegator",
          "type": "address"
        }
      ],
      "stateMutability": "view",
      "type": "function"
    },
    {
      "inputs": [],
      "name": "totalRevenue",
      "outputs": [
        {
          "internalType": "uint256",
          "name": "",
          "type": "uint256"
        }
      ],
      "stateMutability": "view",
      "type": "function"
    },
    {
      "inputs": [
        {
          "internalType": "address",
          "name": "newOwner",
          "type": "address"
        }
      ],
      "name": "transferOwnership",
      "outputs": [],
      "stateMutability": "nonpayable",
      "type": "function"
    },
    {
      "inputs": [
        {
          "internalType": "uint256",
          "name": "_planId",
          "type": "uint256"
        },
        {
          "internalType": "bool",
          "name": "_active",
          "type": "bool"
        }
      ],
      "name": "updatePlan",
      "outputs": [],
      "stateMutability": "nonpayable",
      "type": "function"
    },
    {
      "inputs": [
        {
          "internalType": "address",
          "name": "_token",
          "type": "address"
        },
        {
          "internalType": "uint256",
          "name": "_amount",
          "type": "uint256"
        }
      ],
      "name": "withdrawRevenue",
      "outputs": [],
      "stateMutability": "nonpayable",
      "type": "function"
    }
  ],
  "bytecode": "0x608060405260016005553480156013575f5ffd5b503380603857604051631e4fbdf760e01b81525f600482015260240160405180910390fd5b603f816048565b50600180556097565b5f80546001600160a01b038381166001600160a01b0319831681178455604051919092169283917f8be0079c531659141344cd1fd0a4f28419497f9722a3daafe3b4186f6b6457e09190a35050565b611f2e806100a45f395ff3fe608060405234801561000f575f5ffd5b5060043610610127575f3560e01c80638fe123d7116100a9578063ebbeec081161006e578063ebbeec081461027c578063efac226f146102d7578063f046395a146102ea578063f2fde38b14610366578063f59e94fb14610379575f5ffd5b80638fe123d71461021557806397ad7e0214610228578063b16206161461023b578063bf2d9e0b14610260578063c08bcc6514610269575f5ffd5b80635f8d26b2116100ef5780635f8d26b214610197578063679d86a7146101ae578063715018a6146101e05780638b63c267146101e85780638da5cb5b146101fb575f5ffd5b806309bde0a11461012b5780630f574ba714610140578063157f71231461015357806324e9edb01461016657806326cd52741461016e575b5f5ffd5b61013e6101393660046117e9565b61038c565b005b61013e61014e3660046117e9565b610729565b61013e61016136600461180d565b6108a6565b61013e610929565b61018161017c3660046117e9565b610a33565b60405161018e9190611869565b60405180910390f35b6101a060055481565b60405190815260200161018e565b6101d06101bc3660046118e7565b60046020525f908152604090205460ff1681565b604051901515815260200161018e565b61013e610b65565b61013e6101f6366004611907565b610b78565b5f546040516001600160a01b03909116815260200161018e565b61013e6102233660046118e7565b610c54565b6101d06102363660046118e7565b610fbe565b61024e6102493660046117e9565b611145565b60405161018e9695949392919061192f565b6101a060065481565b61013e610277366004611975565b61120e565b61028f61028a3660046118e7565b61126d565b60405161018e91908151815260208083015190820152604080830151908201526060808301511515908201526080918201516001600160a01b03169181019190915260a00190565b61013e6102e5366004611b3f565b611304565b6103336102f83660046118e7565b600360208190525f918252604090912080546001820154600283015492909301549092919060ff81169061010090046001600160a01b031685565b60408051958652602086019490945292840191909152151560608301526001600160a01b0316608082015260a00161018e565b61013e6103743660046118e7565b6115ec565b61013e610387366004611c6f565b611626565b60055481106103b65760405162461bcd60e51b81526004016103ad90611ccc565b60405180910390fd5b5f8181526002602052604090206004015460ff1661040b5760405162461bcd60e51b8152602060048201526012602482015271506c616e206973206e6f742061637469766560701b60448201526064016103ad565b335f908152600360205260409020541561045c5760405162461bcd60e51b8152602060048201526012602482015271105b1c9958591e481cdd589cd8dc9a58995960721b60448201526064016103ad565b5f60025f8381526020019081526020015f206040518060c00160405290815f820154815260200160018201805461049290611cf9565b80601f01602080910402602001604051908101604052809291908181526020018280546104be90611cf9565b80156105095780601f106104e057610100808354040283529160200191610509565b820191905f5260205f20905b8154815290600101906020018083116104ec57829003601f168201915b505050918352505060028201546020820152600382015460408083019190915260049283015460ff81161515606084015261010090046001600160a01b0390811660809093019290925260a08401518482015191516323b872dd60e01b8152339481019490945230602485015260448401919091529293508216906323b872dd906064016020604051808303815f875af11580156105a9573d5f5f3e3d5ffd5b505050506040513d601f19601f820116820180604052508101906105cd9190611d31565b6106125760405162461bcd60e51b8152602060048201526016602482015275125b9a5d1a585b081c185e5b595b9d0819985a5b195960521b60448201526064016103ad565b6040805160a08101825284815242602080830182815283850192835260016060850181815233608087018181525f9182526003958690528882209751885593519287019290925593516002860155925193909101805491516001600160a81b0319909216931515610100600160a81b031916939093176101006001600160a01b0390921691909102179091559083015160068054919290916106b5908490611d60565b9091555050604051839033907f9cd7a59b18ee4782635475d0e88f128ffeace2871c5bfaefe8d7d680748ab62f905f90a3604080830151815190815242602082015233917f7bd379b31566817ff79103ff210fc7d86fa755c249a8dc25f96618362789e191910160405180910390a2505050565b600554811061074a5760405162461bcd60e51b81526004016103ad90611ccc565b5f8181526002602052604090206004015460ff1661079f5760405162461bcd60e51b8152602060048201526012602482015271506c616e206973206e6f742061637469766560701b60448201526064016103ad565b335f90815260036020526040902054156107f05760405162461bcd60e51b8152602060048201526012602482015271105b1c9958591e481cdd589cd8dc9a58995960721b60448201526064016103ad565b6040805160a08101825282815242602080830182815283850192835260016060850181815233608087018181525f82815260039687905289812098518955945193880193909355945160028701555194909201805492516001600160a01b031661010002610100600160a81b0319951515959095166001600160a81b03199093169290921793909317905591518392917f9cd7a59b18ee4782635475d0e88f128ffeace2871c5bfaefe8d7d680748ab62f91a350565b6108ae611744565b60055482106108cf5760405162461bcd60e51b81526004016103ad90611ccc565b5f82815260026020908152604091829020600401805460ff1916841515908117909155915191825283917fe8898c20571732660341e9bd58210cbce79a036302e465085395645040fd1cc291015b60405180910390a25050565b335f908152600360208190526040909120015460ff166109845760405162461bcd60e51b815260206004820152601660248201527527379030b1ba34bb329039bab139b1b934b83a34b7b760511b60448201526064016103ad565b6040805160a0810182525f80825260208083018281528385018381526060850184815260808601858152338087526003958690528887209751885593516001880155915160028701555194909201805492516001600160a01b031661010002610100600160a81b0319951515959095166001600160a81b031990931692909217939093179055915190917f71215198e3f86c24dc3af6d0d7f84d0095e5ee736aa56daf9927fae51935e95d91a2565b610a726040518060c001604052805f8152602001606081526020015f81526020015f81526020015f151581526020015f6001600160a01b031681525090565b60025f8381526020019081526020015f206040518060c00160405290815f8201548152602001600182018054610aa790611cf9565b80601f0160208091040260200160405190810160405280929190818152602001828054610ad390611cf9565b8015610b1e5780601f10610af557610100808354040283529160200191610b1e565b820191905f5260205f20905b815481529060010190602001808311610b0157829003601f168201915b5050509183525050600282015460208201526003820154604082015260049091015460ff81161515606083015261010090046001600160a01b031660809091015292915050565b610b6d611744565b610b765f611770565b565b610b80611744565b816001600160a01b03811663a9059cbb610ba15f546001600160a01b031690565b6040516001600160e01b031960e084901b1681526001600160a01b039091166004820152602481018590526044016020604051808303815f875af1158015610beb573d5f5f3e3d5ffd5b505050506040513d601f19601f82011682018060405250810190610c0f9190611d31565b610c4f5760405162461bcd60e51b815260206004820152601160248201527015da5d1a191c985dd85b0819985a5b1959607a1b60448201526064016103ad565b505050565b610c5c6117bf565b335f9081526004602052604090205460ff16610cba5760405162461bcd60e51b815260206004820152601760248201527f4e6f7420617574686f72697a6564206578656375746f7200000000000000000060448201526064016103ad565b6001600160a01b0381165f908152600360208190526040909120015460ff16610d255760405162461bcd60e51b815260206004820152601760248201527f537562736372697074696f6e206e6f742061637469766500000000000000000060448201526064016103ad565b6001600160a01b0381165f9081526003602090815260408083208054845260028352818420825160c0810190935280548352600181018054929594919291840191610d6f90611cf9565b80601f0160208091040260200160405190810160405280929190818152602001828054610d9b90611cf9565b8015610de65780601f10610dbd57610100808354040283529160200191610de6565b820191905f5260205f20905b815481529060010190602001808311610dc957829003601f168201915b505050918352505060028281015460208301526003830154604083015260049092015460ff811615156060808401919091526101009091046001600160a01b031660809092019190915282015190840154919250610e4391611d60565b421015610e885760405162461bcd60e51b815260206004820152601360248201527214185e5b595b9d081b9bdd08191d59481e595d606a1b60448201526064016103ad565b60a081015160408083015190516323b872dd60e01b81526001600160a01b0386811660048301523060248301526044820192909252908216906323b872dd906064016020604051808303815f875af1158015610ee6573d5f5f3e3d5ffd5b505050506040513d601f19601f82011682018060405250810190610f0a9190611d31565b610f475760405162461bcd60e51b815260206004820152600e60248201526d14185e5b595b9d0819985a5b195960921b60448201526064016103ad565b4260028401556040820151600680545f90610f63908490611d60565b909155505060408083015181519081524260208201526001600160a01b038616917f7bd379b31566817ff79103ff210fc7d86fa755c249a8dc25f96618362789e191910160405180910390a2505050610fbb60018055565b50565b6001600160a01b038082165f908152600360208181526040808420815160a081018352815481526001820154938101939093526002810154918301919091529091015460ff81161515606083018190526101009091049093166080820152909161102a57505f92915050565b5f60025f835f015181526020019081526020015f206040518060c00160405290815f820154815260200160018201805461106390611cf9565b80601f016020809104026020016040519081016040528092919081815260200182805461108f90611cf9565b80156110da5780601f106110b1576101008083540402835291602001916110da565b820191905f5260205f20905b8154815290600101906020018083116110bd57829003601f168201915b505050918352505060028201546020820152600382015460408083019190915260049092015460ff811615156060808401919091526101009091046001600160a01b03166080909201919091528201519084015191925061113a91611d60565b421015949350505050565b60026020525f90815260409020805460018201805491929161116690611cf9565b80601f016020809104026020016040519081016040528092919081815260200182805461119290611cf9565b80156111dd5780601f106111b4576101008083540402835291602001916111dd565b820191905f5260205f20905b8154815290600101906020018083116111c057829003601f168201915b50505050600283015460038401546004909401549293909290915060ff81169061010090046001600160a01b031686565b611216611744565b6001600160a01b0382165f81815260046020908152604091829020805460ff191685151590811790915591519182527f61e59429ef81596566b5f5d75085a25d4043be4dd2ba28cc98d8677718e6d0c3910161091d565b6112a56040518060a001604052805f81526020015f81526020015f81526020015f151581526020015f6001600160a01b031681525090565b506001600160a01b039081165f90815260036020818152604092839020835160a0810185528154815260018201549281019290925260028101549382019390935291015460ff8116151560608301526101009004909116608082015290565b61130c611744565b825184511461132d5760405162461bcd60e51b81526004016103ad90611d79565b815184511461134e5760405162461bcd60e51b81526004016103ad90611d79565b805184511461136f5760405162461bcd60e51b81526004016103ad90611d79565b6005845111156113c15760405162461bcd60e51b815260206004820152601960248201527f4d6178696d756d203520706c616e73207065722062617463680000000000000060448201526064016103ad565b5f8451116114115760405162461bcd60e51b815260206004820152601a60248201527f4174206c65617374206f6e6520706c616e20726571756972656400000000000060448201526064016103ad565b5f5b84518110156115e5576040518060c00160405280600554815260200186838151811061144157611441611da9565b6020026020010151815260200185838151811061146057611460611da9565b6020026020010151815260200184838151811061147f5761147f611da9565b602002602001015181526020016001151581526020018383815181106114a7576114a7611da9565b6020908102919091018101516001600160a01b03169091526005545f9081526002825260409020825181559082015160018201906114e59082611e01565b50604082015160028201556060820151600382015560808201516004909101805460a0909301516001600160a01b031661010002610100600160a81b0319921515929092166001600160a81b03199093169290921717905560055485517f9e577f4ac885b769646db304f554e3503ca6b65d2bf0dc1aab2d40f42dca44d59087908490811061157657611576611da9565b602002602001015186848151811061159057611590611da9565b60200260200101518685815181106115aa576115aa611da9565b60200260200101516040516115c193929190611ebc565b60405180910390a260058054905f6115d883611ee0565b9091555050600101611413565b5050505050565b6115f4611744565b6001600160a01b03811661161d57604051631e4fbdf760e01b81525f60048201526024016103ad565b610fbb81611770565b61162e611744565b6040805160c0810182526005548082526020808301888152838501889052606084018790526001608085018190526001600160a01b03871660a08601525f9384526002909252939091208251815592519192919082019061168f9082611e01565b5060408281015160028301556060830151600383015560808301516004909201805460a0909401516001600160a01b031661010002610100600160a81b0319931515939093166001600160a81b0319909416939093179190911790915560055490517f9e577f4ac885b769646db304f554e3503ca6b65d2bf0dc1aab2d40f42dca44d59061172290879087908790611ebc565b60405180910390a260058054905f61173983611ee0565b919050555050505050565b5f546001600160a01b03163314610b765760405163118cdaa760e01b81523360048201526024016103ad565b5f80546001600160a01b038381166001600160a01b0319831681178455604051919092169283917f8be0079c531659141344cd1fd0a4f28419497f9722a3daafe3b4186f6b6457e09190a35050565b6002600154036117e257604051633ee5aeb560e01b815260040160405180910390fd5b6002600155565b5f602082840312156117f9575f5ffd5b5035919050565b8015158114610fbb575f5ffd5b5f5f6040838503121561181e575f5ffd5b82359150602083013561183081611800565b809150509250929050565b5f81518084528060208401602086015e5f602082860101526020601f19601f83011685010191505092915050565b60208152815160208201525f602083015160c0604084015261188e60e084018261183b565b905060408401516060840152606084015160808401526080840151151560a084015260018060a01b0360a08501511660c08401528091505092915050565b80356001600160a01b03811681146118e2575f5ffd5b919050565b5f602082840312156118f7575f5ffd5b611900826118cc565b9392505050565b5f5f60408385031215611918575f5ffd5b611921836118cc565b946020939093013593505050565b86815260c060208201525f61194760c083018861183b565b604083019690965250606081019390935290151560808301526001600160a01b031660a09091015292915050565b5f5f60408385031215611986575f5ffd5b61198f836118cc565b9150602083013561183081611800565b634e487b7160e01b5f52604160045260245ffd5b604051601f8201601f1916810167ffffffffffffffff811182821017156119dc576119dc61199f565b604052919050565b5f67ffffffffffffffff8211156119fd576119fd61199f565b5060051b60200190565b5f82601f830112611a16575f5ffd5b813567ffffffffffffffff811115611a3057611a3061199f565b611a43601f8201601f19166020016119b3565b818152846020838601011115611a57575f5ffd5b816020850160208301375f918101602001919091529392505050565b5f82601f830112611a82575f5ffd5b8135611a95611a90826119e4565b6119b3565b8082825260208201915060208360051b860101925085831115611ab6575f5ffd5b602085015b83811015611ad3578035835260209283019201611abb565b5095945050505050565b5f82601f830112611aec575f5ffd5b8135611afa611a90826119e4565b8082825260208201915060208360051b860101925085831115611b1b575f5ffd5b602085015b83811015611ad357611b31816118cc565b835260209283019201611b20565b5f5f5f5f60808587031215611b52575f5ffd5b843567ffffffffffffffff811115611b68575f5ffd5b8501601f81018713611b78575f5ffd5b8035611b86611a90826119e4565b8082825260208201915060208360051b850101925089831115611ba7575f5ffd5b602084015b83811015611be857803567ffffffffffffffff811115611bca575f5ffd5b611bd98c602083890101611a07565b84525060209283019201611bac565b509650505050602085013567ffffffffffffffff811115611c07575f5ffd5b611c1387828801611a73565b935050604085013567ffffffffffffffff811115611c2f575f5ffd5b611c3b87828801611a73565b925050606085013567ffffffffffffffff811115611c57575f5ffd5b611c6387828801611add565b91505092959194509250565b5f5f5f5f60808587031215611c82575f5ffd5b843567ffffffffffffffff811115611c98575f5ffd5b611ca487828801611a07565b9450506020850135925060408501359150611cc1606086016118cc565b905092959194509250565b602080825260139082015272141b185b88191bd95cc81b9bdd08195e1a5cdd606a1b604082015260600190565b600181811c90821680611d0d57607f821691505b602082108103611d2b57634e487b7160e01b5f52602260045260245ffd5b50919050565b5f60208284031215611d41575f5ffd5b815161190081611800565b634e487b7160e01b5f52601160045260245ffd5b80820180821115611d7357611d73611d4c565b92915050565b602080825260169082015275082e4e4c2f2e640d8cadccee8d040dad2e6dac2e8c6d60531b604082015260600190565b634e487b7160e01b5f52603260045260245ffd5b601f821115610c4f57805f5260205f20601f840160051c81016020851015611de25750805b601f840160051c820191505b818110156115e5575f8155600101611dee565b815167ffffffffffffffff811115611e1b57611e1b61199f565b611e2f81611e298454611cf9565b84611dbd565b6020601f821160018114611e61575f8315611e4a5750848201515b5f19600385901b1c1916600184901b1784556115e5565b5f84815260208120601f198516915b82811015611e905787850151825560209485019460019092019101611e70565b5084821015611ead57868401515f19600387901b60f8161c191681555b50505050600190811b01905550565b606081525f611ece606083018661183b565b60208301949094525060400152919050565b5f60018201611ef157611ef1611d4c565b506001019056fea2646970667358221220fa2e5b9ca3292fdfb14c67ca0950eac1fda60f089aa4689a347c823d3c01c12364736f6c634300081c0033",
  "linkReferences": {},
  "deployedLinkReferences": {},
  "immutableReferences": {},
  "inputSourceName": "project/contracts/SubscriptionManager.sol",
  "buildInfoId": "solc-0_8_28-f4a01d4e052132fb3d4805cef39586125170f7bd"
}