{
  "_format": "hh3-artifact-1",
  "contractName": "SubscriptionManagerFactory",
  "sourceName": "contract/contracts/SubscriptionManagerFactory.sol",
  "abi": [
    {
      "inputs": [],
      "stateMutability": "nonpayable",
      "type": "constructor"
    },
    {
      "inputs": [
        {
          "internalType": "address",
          "name": "owner",
          "type": "address"
        }
      ],
      "name": "OwnableInvalidOwner",
      "type": "error"
    },
    {
      "inputs": [
        {
          "internalType": "address",
          "name": "account",
          "type": "address"
        }
      ],
      "name": "OwnableUnauthorizedAccount",
      "type": "error"
    },
    {
      "anonymous": false,
      "inputs": [
        {
          "indexed": true,
          "internalType": "address",
          "name": "previousOwner",
          "type": "address"
        },
        {
          "indexed": true,
          "internalType": "address",
          "name": "newOwner",
          "type": "address"
        }
      ],
      "name": "OwnershipTransferred",
      "type": "event"
    },
    {
      "anonymous": false,
      "inputs": [
        {
          "indexed": true,
          "internalType": "address",
          "name": "creator",
          "type": "address"
        },
        {
          "indexed": true,
          "internalType": "address",
          "name": "owner",
          "type": "address"
        },
        {
          "indexed": false,
          "internalType": "address",
          "name": "subscriptionManager",
          "type": "address"
        }
      ],
      "name": "SubscriptionManagerDeployed",
      "type": "event"
    },
    {
      "inputs": [
        {
          "internalType": "address",
          "name": "owner",
          "type": "address"
        },
        {
          "internalType": "string[]",
          "name": "planNames",
          "type": "string[]"
        },
        {
          "internalType": "uint256[]",
          "name": "planPrices",
          "type": "uint256[]"
        },
        {
          "internalType": "uint256[]",
          "name": "planPeriods",
          "type": "uint256[]"
        },
        {
          "internalType": "address[]",
          "name": "planTokenAddresses",
          "type": "address[]"
        }
      ],
      "name": "createSubscriptionManager",
      "outputs": [
        {
          "internalType": "address",
          "name": "manager",
          "type": "address"
        }
      ],
      "stateMutability": "nonpayable",
      "type": "function"
    },
    {
      "inputs": [],
      "name": "getAllManagers",
      "outputs": [
        {
          "internalType": "address[]",
          "name": "",
          "type": "address[]"
        }
      ],
      "stateMutability": "view",
      "type": "function"
    },
    {
      "inputs": [
        {
          "internalType": "address",
          "name": "owner",
          "type": "address"
        }
      ],
      "name": "getManagersByOwner",
      "outputs": [
        {
          "internalType": "address[]",
          "name": "",
          "type": "address[]"
        }
      ],
      "stateMutability": "view",
      "type": "function"
    },
    {
      "inputs": [],
      "name": "owner",
      "outputs": [
        {
          "internalType": "address",
          "name": "",
          "type": "address"
        }
      ],
      "stateMutability": "view",
      "type": "function"
    },
    {
      "inputs": [],
      "name": "renounceOwnership",
      "outputs": [],
      "stateMutability": "nonpayable",
      "type": "function"
    },
    {
      "inputs": [],
      "name": "totalManagers",
      "outputs": [
        {
          "internalType": "uint256",
          "name": "",
          "type": "uint256"
        }
      ],
      "stateMutability": "view",
      "type": "function"
    },
    {
      "inputs": [
        {
          "internalType": "address",
          "name": "newOwner",
          "type": "address"
        }
      ],
      "name": "transferOwnership",
      "outputs": [],
      "stateMutability": "nonpayable",
      "type": "function"
    }
  ],
  "bytecode": "0x6080604052348015600e575f5ffd5b503380603357604051631e4fbdf760e01b81525f600482015260240160405180910390fd5b603a81603f565b50608e565b5f80546001600160a01b038381166001600160a01b0319831681178455604051919092169283917f8be0079c531659141344cd1fd0a4f28419497f9722a3daafe3b4186f6b6457e09190a35050565b6126968061009b5f395ff3fe608060405234801561000f575f5ffd5b506004361061007a575f3560e01c80638da5cb5b116100585780638da5cb5b146100d8578063d5eb7cf4146100e8578063e6671871146100f9578063f2fde38b14610101575f5ffd5b806301c619141461007e578063715018a6146100ae5780638be6bbb2146100b8575b5f5ffd5b61009161008c366004610660565b610114565b6040516001600160a01b0390911681526020015b60405180910390f35b6100b6610452565b005b6100cb6100c6366004610740565b610465565b6040516100a59190610760565b5f546001600160a01b0316610091565b6001546040519081526020016100a5565b6100cb6104d8565b6100b661010f366004610740565b610538565b5f806001600160a01b038b161561012b578a61012d565b335b9050888714801561013d57508885145b801561014857508883145b6101a55760405162461bcd60e51b815260206004820152602360248201527f466163746f72793a20706c616e206172726179206c656e677468206d69736d616044820152620e8c6d60eb1b60648201526084015b60405180910390fd5b5f6040516101b2906105f0565b604051809103905ff0801580156101cb573d5f5f3e3d5ffd5b5092508290508961022a5760405162461bcd60e51b815260206004820152602360248201527f466163746f72793a206174206c65617374206f6e6520706c616e2072657175696044820152621c995960ea1b606482015260840161019c565b5f816001600160a01b0316630ea91f116040518163ffffffff1660e01b8152600401602060405180830381865afa158015610267573d5f5f3e3d5ffd5b505050506040513d601f19601f8201168201806040525081019061028b91906107ab565b9050808b11156102dd5760405162461bcd60e51b815260206004820152601a60248201527f466163746f72793a2065786365656473206d617820706c616e73000000000000604482015260640161019c565b60405163efac226f60e01b81526001600160a01b0383169063efac226f90610317908f908f908f908f908f908f908f908f90600401610860565b5f604051808303815f87803b15801561032e575f5ffd5b505af1158015610340573d5f5f3e3d5ffd5b505060405163f2fde38b60e01b81526001600160a01b0386811660048301528516925063f2fde38b91506024015f604051808303815f87803b158015610384575f5ffd5b505af1158015610396573d5f5f3e3d5ffd5b50506001805480820182557fb10e2d527612073b26eecdfd717e6a320cf44b4afac2b0732d9fcbe2b7fa0cf60180546001600160a01b038981166001600160a01b0319928316811790935588165f8181526002602090815260408083208054978801815583529181902090950180549093168417909255905191825293503392507f38db265c0cf2a33c417051a7d0943e38a02b3db9f988689dd670bf6a1aa5e0cd910160405180910390a35050509998505050505050505050565b61045a610575565b6104635f6105a1565b565b6001600160a01b0381165f908152600260209081526040918290208054835181840281018401909452808452606093928301828280156104cc57602002820191905f5260205f20905b81546001600160a01b031681526001909101906020018083116104ae575b50505050509050919050565b6060600180548060200260200160405190810160405280929190818152602001828054801561052e57602002820191905f5260205f20905b81546001600160a01b03168152600190910190602001808311610510575b5050505050905090565b610540610575565b6001600160a01b03811661056957604051631e4fbdf760e01b81525f600482015260240161019c565b610572816105a1565b50565b5f546001600160a01b031633146104635760405163118cdaa760e01b815233600482015260240161019c565b5f80546001600160a01b038381166001600160a01b0319831681178455604051919092169283917f8be0079c531659141344cd1fd0a4f28419497f9722a3daafe3b4186f6b6457e09190a35050565b611d198061094883390190565b80356001600160a01b0381168114610613575f5ffd5b919050565b5f5f83601f840112610628575f5ffd5b50813567ffffffffffffffff81111561063f575f5ffd5b6020830191508360208260051b8501011115610659575f5ffd5b9250929050565b5f5f5f5f5f5f5f5f5f60a08a8c031215610678575f5ffd5b6106818a6105fd565b985060208a013567ffffffffffffffff81111561069c575f5ffd5b6106a88c828d01610618565b90995097505060408a013567ffffffffffffffff8111156106c7575f5ffd5b6106d38c828d01610618565b90975095505060608a013567ffffffffffffffff8111156106f2575f5ffd5b6106fe8c828d01610618565b90955093505060808a013567ffffffffffffffff81111561071d575f5ffd5b6107298c828d01610618565b915080935050809150509295985092959850929598565b5f60208284031215610750575f5ffd5b610759826105fd565b9392505050565b602080825282518282018190525f918401906040840190835b818110156107a05783516001600160a01b0316835260209384019390920191600101610779565b509095945050505050565b5f602082840312156107bb575f5ffd5b5051919050565b81835281816020850137505f828201602090810191909152601f909101601f19169091010190565b8183525f6001600160fb1b03831115610801575f5ffd5b8260051b80836020870137939093016020019392505050565b8183526020830192505f815f5b84811015610856576001600160a01b03610840836105fd565b1686526020958601959190910190600101610827565b5093949350505050565b608080825281018890525f60a060058a901b830181019083018b83601e1936839003015b8d8210156108f757868503609f1901845282358181126108a2575f5ffd5b8f81019050803560208201915067ffffffffffffffff8111156108c3575f5ffd5b8036038213156108d1575f5ffd5b6108dc8782846107c2565b96505050602083019250602084019350600182019150610884565b50505050828103602084015261090e81898b6107ea565b905082810360408401526109238187896107ea565b9050828103606084015261093881858761081a565b9b9a505050505050505050505056fe608060405260016004553480156013575f5ffd5b503380603857604051631e4fbdf760e01b81525f600482015260240160405180910390fd5b603f816048565b50600180556097565b5f80546001600160a01b038381166001600160a01b0319831681178455604051919092169283917f8be0079c531659141344cd1fd0a4f28419497f9722a3daafe3b4186f6b6457e09190a35050565b611c75806100a45f395ff3fe608060405234801561000f575f5ffd5b5060043610610110575f3560e01c80638da5cb5b1161009e578063bf2d9e0b1161006e578063bf2d9e0b14610239578063ebbeec0814610242578063efac226f1461029d578063f046395a146102b0578063f2fde38b1461032c575f5ffd5b80638da5cb5b146101c75780638fe123d7146101d757806397ad7e02146101ea578063b162061614610214575f5ffd5b806326cd5274116100e457806326cd52741461015f5780635f8d26b21461017f578063715018a614610188578063893d20e8146101905780638b63c267146101b4575f5ffd5b8062e1801c1461011457806309bde0a1146101295780630ea91f111461013c57806324e9edb014610157575b5f5ffd5b6101276101223660046115de565b61033f565b005b6101276101373660046115fe565b6103ed565b610144600581565b6040519081526020015b60405180910390f35b6101276107a7565b61017261016d3660046115fe565b6108b1565b60405161014e9190611643565b61014460045481565b6101276109e3565b5f546001600160a01b03165b6040516001600160a01b03909116815260200161014e565b6101276101c23660046116c1565b6109f6565b5f546001600160a01b031661019c565b6101276101e53660046116e9565b610ad2565b6101fd6101f83660046116e9565b610f00565b60408051921515835260208301919091520161014e565b6102276102223660046115fe565b61109f565b60405161014e96959493929190611709565b61014460055481565b6102556102503660046116e9565b611168565b60405161014e91908151815260208083015190820152604080830151908201526060808301511515908201526080918201516001600160a01b03169181019190915260a00190565b6101276102ab366004611883565b6111ff565b6102f96102be3660046116e9565b600360208190525f918252604090912080546001820154600283015492909301549092919060ff81169061010090046001600160a01b031685565b60408051958652602086019490945292840191909152151560608301526001600160a01b0316608082015260a00161014e565b61012761033a3660046116e9565b6114ff565b610347611539565b60045482106103935760405162461bcd60e51b8152602060048201526013602482015272141b185b88191bd95cc81b9bdd08195e1a5cdd606a1b60448201526064015b60405180910390fd5b5f828152600260208181526040928390209182018054908590558351818152918201859052919285917f353a42a683526219c00406d501f12ed3b877e06934a00242bc50ecf7a779919d910160405180910390a250505050565b60045481106104345760405162461bcd60e51b8152602060048201526013602482015272141b185b88191bd95cc81b9bdd08195e1a5cdd606a1b604482015260640161038a565b5f8181526002602052604090206004015460ff166104895760405162461bcd60e51b8152602060048201526012602482015271506c616e206973206e6f742061637469766560701b604482015260640161038a565b335f90815260036020526040902054156104da5760405162461bcd60e51b8152602060048201526012602482015271105b1c9958591e481cdd589cd8dc9a58995960721b604482015260640161038a565b5f60025f8381526020019081526020015f206040518060c00160405290815f820154815260200160018201805461051090611a12565b80601f016020809104026020016040519081016040528092919081815260200182805461053c90611a12565b80156105875780601f1061055e57610100808354040283529160200191610587565b820191905f5260205f20905b81548152906001019060200180831161056a57829003601f168201915b505050918352505060028201546020820152600382015460408083019190915260049283015460ff81161515606084015261010090046001600160a01b0390811660809093019290925260a08401518482015191516323b872dd60e01b8152339481019490945230602485015260448401919091529293508216906323b872dd906064016020604051808303815f875af1158015610627573d5f5f3e3d5ffd5b505050506040513d601f19601f8201168201806040525081019061064b9190611a4a565b6106905760405162461bcd60e51b8152602060048201526016602482015275125b9a5d1a585b081c185e5b595b9d0819985a5b195960521b604482015260640161038a565b6040805160a08101825284815242602080830182815283850192835260016060850181815233608087018181525f9182526003958690528882209751885593519287019290925593516002860155925193909101805491516001600160a81b0319909216931515610100600160a81b031916939093176101006001600160a01b039092169190910217909155908301516005805491929091610733908490611a7d565b9091555050604051839033907f9cd7a59b18ee4782635475d0e88f128ffeace2871c5bfaefe8d7d680748ab62f905f90a3604080830151815190815242602082015233917f7bd379b31566817ff79103ff210fc7d86fa755c249a8dc25f96618362789e191910160405180910390a2505050565b335f908152600360208190526040909120015460ff166108025760405162461bcd60e51b815260206004820152601660248201527527379030b1ba34bb329039bab139b1b934b83a34b7b760511b604482015260640161038a565b6040805160a0810182525f80825260208083018281528385018381526060850184815260808601858152338087526003958690528887209751885593516001880155915160028701555194909201805492516001600160a01b031661010002610100600160a81b0319951515959095166001600160a81b031990931692909217939093179055915190917f71215198e3f86c24dc3af6d0d7f84d0095e5ee736aa56daf9927fae51935e95d91a2565b6108f06040518060c001604052805f8152602001606081526020015f81526020015f81526020015f151581526020015f6001600160a01b031681525090565b60025f8381526020019081526020015f206040518060c00160405290815f820154815260200160018201805461092590611a12565b80601f016020809104026020016040519081016040528092919081815260200182805461095190611a12565b801561099c5780601f106109735761010080835404028352916020019161099c565b820191905f5260205f20905b81548152906001019060200180831161097f57829003601f168201915b5050509183525050600282015460208201526003820154604082015260049091015460ff81161515606083015261010090046001600160a01b031660809091015292915050565b6109eb611539565b6109f45f611565565b565b6109fe611539565b816001600160a01b03811663a9059cbb610a1f5f546001600160a01b031690565b6040516001600160e01b031960e084901b1681526001600160a01b039091166004820152602481018590526044016020604051808303815f875af1158015610a69573d5f5f3e3d5ffd5b505050506040513d601f19601f82011682018060405250810190610a8d9190611a4a565b610acd5760405162461bcd60e51b815260206004820152601160248201527015da5d1a191c985dd85b0819985a5b1959607a1b604482015260640161038a565b505050565b610ada6115b4565b336001600160a01b03821614610b415760405162461bcd60e51b815260206004820152602660248201527f43616e206f6e6c792070617920666f7220796f7572206f776e2073756273637260448201526534b83a34b7b760d11b606482015260840161038a565b6001600160a01b0381165f908152600360208190526040909120015460ff16610bac5760405162461bcd60e51b815260206004820152601760248201527f537562736372697074696f6e206e6f7420616374697665000000000000000000604482015260640161038a565b6001600160a01b0381165f9081526003602090815260408083208054845260028352818420825160c0810190935280548352600181018054929594919291840191610bf690611a12565b80601f0160208091040260200160405190810160405280929190818152602001828054610c2290611a12565b8015610c6d5780601f10610c4457610100808354040283529160200191610c6d565b820191905f5260205f20905b815481529060010190602001808311610c5057829003601f168201915b505050918352505060028281015460208301526003830154604083015260049092015460ff811615156060808401919091526101009091046001600160a01b031660809092019190915282015190840154919250610cca91611a7d565b421015610d0f5760405162461bcd60e51b815260206004820152601360248201527214185e5b595b9d081b9bdd08191d59481e595d606a1b604482015260640161038a565b60a081015160408083015190516370a0823160e01b81526001600160a01b0386811660048301528316906370a0823190602401602060405180830381865afa158015610d5d573d5f5f3e3d5ffd5b505050506040513d601f19601f82011682018060405250810190610d819190611a96565b1015610dcf5760405162461bcd60e51b815260206004820152601960248201527f496e73756666696369656e7420555344432062616c616e636500000000000000604482015260640161038a565b60408281015190516323b872dd60e01b81526001600160a01b0386811660048301523060248301526044820192909252908216906323b872dd906064016020604051808303815f875af1158015610e28573d5f5f3e3d5ffd5b505050506040513d601f19601f82011682018060405250810190610e4c9190611a4a565b610e895760405162461bcd60e51b815260206004820152600e60248201526d14185e5b595b9d0819985a5b195960921b604482015260640161038a565b4260028401556040820151600580545f90610ea5908490611a7d565b909155505060408083015181519081524260208201526001600160a01b038616917f7bd379b31566817ff79103ff210fc7d86fa755c249a8dc25f96618362789e191910160405180910390a2505050610efd60018055565b50565b6001600160a01b038082165f908152600360208181526040808420815160a081018352815481526001820154938101939093526002810154918301919091529091015460ff811615801560608401526101009091049093166080820152909182919080610f6c57508051155b15610f7c57505f93849350915050565b5f60025f835f015181526020019081526020015f206040518060c00160405290815f8201548152602001600182018054610fb590611a12565b80601f0160208091040260200160405190810160405280929190818152602001828054610fe190611a12565b801561102c5780601f106110035761010080835404028352916020019161102c565b820191905f5260205f20905b81548152906001019060200180831161100f57829003601f168201915b505050918352505060028201546020820152600382015460408083019190915260049092015460ff811615156060808401919091526101009091046001600160a01b0316608090920191909152820151908401519192505f9161108f9190611a7d565b4281111597909650945050505050565b60026020525f9081526040902080546001820180549192916110c090611a12565b80601f01602080910402602001604051908101604052809291908181526020018280546110ec90611a12565b80156111375780601f1061110e57610100808354040283529160200191611137565b820191905f5260205f20905b81548152906001019060200180831161111a57829003601f168201915b50505050600283015460038401546004909401549293909290915060ff81169061010090046001600160a01b031686565b6111a06040518060a001604052805f81526020015f81526020015f81526020015f151581526020015f6001600160a01b031681525090565b506001600160a01b039081165f90815260036020818152604092839020835160a0810185528154815260018201549281019290925260028101549382019390935291015460ff8116151560608301526101009004909116608082015290565b611207611539565b82518451146112285760405162461bcd60e51b815260040161038a90611aad565b81518451146112495760405162461bcd60e51b815260040161038a90611aad565b805184511461126a5760405162461bcd60e51b815260040161038a90611aad565b5f8451116112ba5760405162461bcd60e51b815260206004820152601a60248201527f4174206c65617374206f6e6520706c616e207265717569726564000000000000604482015260640161038a565b6005600185516004546112cd9190611a7d565b6112d79190611add565b11156113255760405162461bcd60e51b815260206004820152601b60248201527f45786365656473206d6178696d756d20706c616e73206c696d69740000000000604482015260640161038a565b5f5b84518110156114f8576040518060c00160405280600454815260200186838151811061135557611355611af0565b6020026020010151815260200185838151811061137457611374611af0565b6020026020010151815260200184838151811061139357611393611af0565b602002602001015181526020016001151581526020018383815181106113bb576113bb611af0565b6020908102919091018101516001600160a01b03169091526004545f9081526002825260409020825181559082015160018201906113f99082611b48565b50604082015160028201556060820151600382015560808201516004918201805460a0909401516001600160a01b031661010002610100600160a81b0319921515929092166001600160a81b031990941693909317179091555485517f9e577f4ac885b769646db304f554e3503ca6b65d2bf0dc1aab2d40f42dca44d59087908490811061148957611489611af0565b60200260200101518684815181106114a3576114a3611af0565b60200260200101518685815181106114bd576114bd611af0565b60200260200101516040516114d493929190611c03565b60405180910390a260048054905f6114eb83611c27565b9091555050600101611327565b5050505050565b611507611539565b6001600160a01b03811661153057604051631e4fbdf760e01b81525f600482015260240161038a565b610efd81611565565b5f546001600160a01b031633146109f45760405163118cdaa760e01b815233600482015260240161038a565b5f80546001600160a01b038381166001600160a01b0319831681178455604051919092169283917f8be0079c531659141344cd1fd0a4f28419497f9722a3daafe3b4186f6b6457e09190a35050565b6002600154036115d757604051633ee5aeb560e01b815260040160405180910390fd5b6002600155565b5f5f604083850312156115ef575f5ffd5b50508035926020909101359150565b5f6020828403121561160e575f5ffd5b5035919050565b5f81518084528060208401602086015e5f602082860101526020601f19601f83011685010191505092915050565b60208152815160208201525f602083015160c0604084015261166860e0840182611615565b905060408401516060840152606084015160808401526080840151151560a084015260018060a01b0360a08501511660c08401528091505092915050565b80356001600160a01b03811681146116bc575f5ffd5b919050565b5f5f604083850312156116d2575f5ffd5b6116db836116a6565b946020939093013593505050565b5f602082840312156116f9575f5ffd5b611702826116a6565b9392505050565b86815260c060208201525f61172160c0830188611615565b604083019690965250606081019390935290151560808301526001600160a01b031660a09091015292915050565b634e487b7160e01b5f52604160045260245ffd5b604051601f8201601f1916810167ffffffffffffffff8111828210171561178c5761178c61174f565b604052919050565b5f67ffffffffffffffff8211156117ad576117ad61174f565b5060051b60200190565b5f82601f8301126117c6575f5ffd5b81356117d96117d482611794565b611763565b8082825260208201915060208360051b8601019250858311156117fa575f5ffd5b602085015b838110156118175780358352602092830192016117ff565b5095945050505050565b5f82601f830112611830575f5ffd5b813561183e6117d482611794565b8082825260208201915060208360051b86010192508583111561185f575f5ffd5b602085015b8381101561181757611875816116a6565b835260209283019201611864565b5f5f5f5f60808587031215611896575f5ffd5b843567ffffffffffffffff8111156118ac575f5ffd5b8501601f810187136118bc575f5ffd5b80356118ca6117d482611794565b8082825260208201915060208360051b8501019250898311156118eb575f5ffd5b602084015b8381101561198b57803567ffffffffffffffff81111561190e575f5ffd5b8501603f81018c1361191e575f5ffd5b602081013567ffffffffffffffff81111561193b5761193b61174f565b61194e601f8201601f1916602001611763565b8181526040838301018e1015611962575f5ffd5b816040840160208301375f602083830101528086525050506020830192506020810190506118f0565b509650505050602085013567ffffffffffffffff8111156119aa575f5ffd5b6119b6878288016117b7565b935050604085013567ffffffffffffffff8111156119d2575f5ffd5b6119de878288016117b7565b925050606085013567ffffffffffffffff8111156119fa575f5ffd5b611a0687828801611821565b91505092959194509250565b600181811c90821680611a2657607f821691505b602082108103611a4457634e487b7160e01b5f52602260045260245ffd5b50919050565b5f60208284031215611a5a575f5ffd5b81518015158114611702575f5ffd5b634e487b7160e01b5f52601160045260245ffd5b80820180821115611a9057611a90611a69565b92915050565b5f60208284031215611aa6575f5ffd5b5051919050565b602080825260169082015275082e4e4c2f2e640d8cadccee8d040dad2e6dac2e8c6d60531b604082015260600190565b81810381811115611a9057611a90611a69565b634e487b7160e01b5f52603260045260245ffd5b601f821115610acd57805f5260205f20601f840160051c81016020851015611b295750805b601f840160051c820191505b818110156114f8575f8155600101611b35565b815167ffffffffffffffff811115611b6257611b6261174f565b611b7681611b708454611a12565b84611b04565b6020601f821160018114611ba8575f8315611b915750848201515b5f19600385901b1c1916600184901b1784556114f8565b5f84815260208120601f198516915b82811015611bd75787850151825560209485019460019092019101611bb7565b5084821015611bf457868401515f19600387901b60f8161c191681555b50505050600190811b01905550565b606081525f611c156060830186611615565b60208301949094525060400152919050565b5f60018201611c3857611c38611a69565b506001019056fea26469706673582212205e12c1bb2ff31cd19148ceefaf413c0c1b949276785193e2df79b1b64156d60f64736f6c634300081c0033a26469706673582212208ea0ab88a20605d154d5604e55626df5c1f5cb998c7b5b7958f87e9360f40d4b64736f6c634300081c0033",
  "linkReferences": {},
  "deployedLinkReferences": {},
  "immutableReferences": {},
  "inputSourceName": "project/contract/contracts/SubscriptionManagerFactory.sol",
  "buildInfoId": "solc-0_8_28-cb7ad826e703d42f9d5316bdb2825ddd51d67559"
}